:1000000014C1000042C1000040C100003EC1000018
:100010003CC100003AC1000038C1000036C10000F8
:1000200034C1000032C1000030C100002EC1000008
:100030002CC100002AC1000028C1000026C1000018
:1000400024C1000022C1000020C100001EC1000028
:100050001CC100001AC1000018C1000073C40000D8
:1000600014C1000039C400000EC400000EC100001D
:100070000CC100000AC1000008C1000006C1000058
:1000800004C1000002C1000000C10000FEC0000069
:10009000FCC00000FAC00000F8C00000F6C000007C
:1000A000F4C00000F2C00000F0C00000EEC000008C
:1000B000ECC00000EAC00000E8C00000E6C000009C
:1000C000E4C00000E2C00000E0C00000DEC00000AC
:1000D000DCC00000DAC00000D8C00000D6C00000BC
:1000E000D4C00000DD05E005CF05D305D705170610
:1000F000E405E805EE05F205F605FC050006040634
:1001000017060A060E06120600002100240027002A
:100110002A002D0030003300010100000401070116
:100120000A0100002200250028002B002E003100CB
:10013000340002010000050108010B0100000A0B58
:1001400002090C0D0E080703040100000000000066
:10015000000000000000000000000000000000009F
:10016000000000000000000012111000000000005C
:10017000000000000000000000000000000000007F
:100180000000000020002300260029002C002F0082
:100190003200000100000301060109010505050503
:1001A000070508080808020202020A0A08080404EF
:1001B000040401010101010101010303030303031D
:1001C0000303040707070C0C0C0C0C0C0C0C0202AC
:1001D000020206060606060606060B0B0B0B0B0BA9
:1001E0000B0B010210202008081020401020408036
:1001F00002010201080402010102040810204080EB
:100200008040201008040201800402018040201078
:1002100008040201080402010102040810204080C1
:100220000102040810204080000711241FBECFEFF8
:10023000D1E2DEBFCDBF00E00CBF12E0A0E0B2E033
:10024000EEEEF2E100E00BBF02C007900D92AC367B
:10025000B107D9F723E0ACE6B2E001C01D92AF319F
:10026000B207E1F711E0C5E1D1E000E006C0219757
:100270000109802FFE010E946909C431D10780E085
:100280000807A9F7A9D30C947509BACECF92DF92CB
:10029000EF92FF920F931F93CF93DF936C017A013C
:1002A0008B01C0E0D0E0CE15DF0589F0D8016D915B
:1002B0008D01D601ED91FC910190F081E02DC601F8
:1002C0001995892B11F47E0102C02196ECCFC7014C
:1002D000DF91CF911F910F91FF90EF90DF90CF9022
:1002E0000895089580E090E00895FC01538D448DB9
:1002F000252F30E0842F90E0821B930B541710F0D1
:10030000CF96089501970895FC01918D828D9817DD
:1003100061F0828DDF01A80FB11D5D968C91928DE9
:100320009F5F9F73928F90E008958FEF9FEF0895E6
:10033000FC01918D828D981731F0828DE80FF11DAF
:10034000858D90E008958FEF9FEF0895FC01918DCA
:10035000228D892F90E0805C9F4F821B91098F73C3
:100360009927089582E892E0F1DF21E0892B09F4D2
:1003700020E0822F0895FC01848DDF01A80FB11DBC
:10038000A35ABF4F2C91848D90E001968F739927CB
:10039000848FA689B7892C93A089B1898C918064B8
:1003A0008C93938D848D981306C00288F389E02D79
:1003B00080818F7D80830895EF92FF920F931F932A
:1003C000CF93DF93EC0181E0888F9B8D8C8D981308
:1003D00005C0E889F989808185FD23C0F62E0B8D43
:1003E00010E00F5F1F4F0F731127E02E8C8DE81266
:1003F0000BC00FB607FCFACFE889F989808185FF29
:10040000F5CFCE01B8DFF2CF8B8DFE01E80FF11DE5
:10041000E35AFF4FF0820B8FEA89FB89808180626B
:1004200007C0EE89FF896083E889F989808180644B
:10043000808381E090E0DF91CF911F910F91FF9039
:10044000EF900895CF93DF93EC01888D8823C1F05E
:10045000EA89FB89808185FD05C0A889B9898C91CD
:1004600086FD0EC00FB607FCF5CF808185FFF2CF69
:10047000A889B9898C9185FFEDCFCE017CDFE8CFCB
:10048000DF91CF91089580E090E0892B19F06ADF29
:10049000811125C080E090E0892B41F080E090E060
:1004A000892B21F00E94000081111CC080E090E0A7
:1004B000892B41F080E090E0892B21F00E94000020
:1004C000811113C080E090E0892BA1F080E090E0E2
:1004D000892B81F00E94000081110AC008950E94BA
:1004E0000000D8CF0E940000E1CF0E940000EACFB8
:1004F0000C9400000895CF93DF9390E0FC01EE513F
:10050000FE4F2491FC01E456FE4F8491882361F153
:1005100090E0880F991FFC01E85FFE4FC591D491D0
:10052000FC01EE5DFE4FA591B491611109C09FB72A
:10053000F8948881209582238883EC912E230BC028
:10054000623061F49FB7F8943881822F80958323BD
:100550008883EC912E2B2C939FBF06C08FB7F89405
:10056000E8812E2B28838FBFDF91CF9108953FB76D
:10057000F8948091710290917202A0917302B091EF
:10058000740226B5A89B05C02F3F19F00196A11D46
:10059000B11D3FBFBA2FA92F982F8827820F911D19
:1005A000A11DB11DBC01CD0142E0660F771F881F60
:1005B000991F4A95D1F708958F929F92AF92BF925B
:1005C000CF92DF92EF92FF926B017C01D0DF4B0163
:1005D0005C01C114D104E104F104E9F0C8DFDC01DD
:1005E000CB0188199909AA09BB09883E9340A10546
:1005F000B10578F321E0C21AD108E108F10888EECC
:10060000880E83E0981EA11CB11CC114D104E10422
:10061000F10421F7DECFFF90EF90DF90CF90BF90F5
:10062000AF909F908F900895009761F0FC0101902A
:100630000020E9F73197AF01481B590BBC0182E854
:1006400092E024CE80E090E00895CF93DF93ECDF3A
:10065000EC0182E192E0E8DF8C0F9D1FDF91CF91EA
:1006600008958F929F92AF92BF920F931F93CF9353
:10067000DF93CDB7DEB7A1970FB6F894DEBF0FBEFC
:10068000CDBF19A2423008F44AE08E010F5D1F4F22
:10069000842E912CA12CB12CA5019401F8D5E62F24
:1006A000B901CA0101501109EA3014F4E05D01C03A
:1006B000E95CD801EC93232B242B252B69F7C80187
:1006C000B3DFA1960FB6F894DEBF0FBECDBFDF91AA
:1006D000CF911F910F91BF90AF909F908F900895F1
:1006E0004F925F926F927F928F929F92AF92BF9242
:1006F000CF92DF92EF92FF926B017C01B42E9B01AF
:10070000AC01C1D5882319F085E192E024C026010F
:100710003701E89477F82FEF3FEF4FE75FE7C3012A
:10072000B201B1D581110CC02FEF3FEF4FE75FE76A
:10073000C301B201F7D318161CF489E192E00BC093
:100740002FEF3FEF4FE75FE4C701B60135D518162D
:100750007CF48DE192E0FF90EF90DF90CF90BF901E
:10076000AF909F908F907F906F905F904F905CCFF5
:100770002FEF3FEF4FE75FECC701B601D3D387FD03
:10078000E8CF20E030E0A901C701B601CBD387FF55
:1007900011C0E0918202F09183020190F081E02D7E
:1007A0006DE282E892E019954C01F7FAF094F7F8BF
:1007B000F09402C0812C912CA12C60E070E080E0CC
:1007C0009FE3AB1439F020E030E040E251E4AED3D7
:1007D000A394F7CF9B01AC01C701B6013FD32B0116
:1007E0003C010CD46B017C0135D49B01AC01C301ED
:1007F000B20133D32B013C014AE0C701B60131DF1E
:100800007C01E80CF91CBB2069F0E0918202F091B8
:1008100083020190F081E02D6EE282E892E019956A
:10082000E80EF91EDB2CDD20F9F020E030E040E29C
:1008300051E4C301B201C4D42B013C01DFD34B010D
:10084000A12CB12C4AE0C501B4010BDFE80EF91E62
:10085000C501B401FFD39B01AC01C301B201FDD2BC
:100860002B013C01DA94DFCFC701FF90EF90DF90BE
:10087000CF90BF90AF909F908F907F906F905F9040
:100880004F9008952ED51F920F920FB60F921124FC
:100890000BB60F922F933F934F935F936F937F937A
:1008A0008F939F93AF93BF93EF93FF9382E892E070
:1008B00062DDFF91EF91BF91AF919F918F917F91F9
:1008C0006F915F914F913F912F910F900BBE0F90C1
:1008D0000FBE0F901F9018951F920F920FB60F9298
:1008E00011240BB60F922F938F939F93EF93FF9347
:1008F000E0919202F09193028081E0919802F09150
:10090000990282FD12C0908180919B028F5F8F734C
:1009100020919C02821751F0E0919B02F0E0EE578B
:10092000FD4F958F80939B0201C08081FF91EF91D5
:100930009F918F912F910F900BBE0F900FBE0F9034
:100940001F9018951F920F920FB60F9211242F939C
:100950003F938F939F93AF93BF9380916D0290913C
:100960006E02A0916F02B091700230916C0223E090
:10097000230F2D3720F40196A11DB11D05C026E8D7
:10098000230F0296A11DB11D20936C0280936D026E
:1009900090936E02A0936F02B093700280917102E7
:1009A00090917202A0917302B09174020196A11D00
:1009B000B11D8093710290937202A0937302B09361
:1009C0007402BF91AF919F918F913F912F910F90A2
:1009D0000FBE0F901F901895CF93DF9300D0CDB727
:1009E000DEB7789484B5826084BD84B5816084BDAF
:1009F00085B5826085BD85B5816085BD80916E00BD
:100A0000816080936E0010928100809181008260ED
:100A1000809381008091810081608093810080912A
:100A200080008160809380008091B1008460809319
:100A3000B1008091B00081608093B00080919100FE
:100A400082608093910080919100816080939100F9
:100A5000809190008160809390008091A1008260DD
:100A60008093A1008091A10081608093A10080917A
:100A7000A00081608093A00080912101826080931A
:100A800021018091210181608093210180912001C9
:100A900081608093200180917A00846080937A0045
:100AA00080917A00826080937A0080917A008160E0
:100AB00080937A0080917A00806880937A00109207
:100AC000C10060E08DE017DDE0919202F0919302A9
:100AD00082E08083E0918E02F0918F021082E0919B
:100AE0009002F091910280E1808310929A02E0914D
:100AF0009602F091970286E08083E0919402F09153
:100B00009502808180618083E0919402F09195024A
:100B1000808188608083E0919402F09195028081C9
:100B200080688083E0919402F091950280818F7DAE
:100B300080830FEE11E089EAE82E81E0F82E90E93B
:100B4000892E99249394A12CB12CF801D490F7010B
:100B50008491E82FF0E0EE0FFF1FEE57FE4F8591D6
:100B600094919B838A8361E08DE0C5DCE9E4F1E048
:100B70004491F8012491F7019491992309F466C0F6
:100B8000442309F454C050E0FA013197E231F105F1
:100B900008F04DC08827EE58FF4F8F4F9AC38091C1
:100BA00080008F7707C0809180008F7D03C0809187
:100BB0008000877F809380003AC084B58F7702C021
:100BC00084B58F7D84BD33C08091B0008F7703C022
:100BD0008091B0008F7D8093B00029C080919000FB
:100BE0008F7707C0809190008F7D03C08091900027
:100BF000877F809390001BC08091A0008F7707C0F3
:100C00008091A0008F7D03C08091A000877F80939A
:100C1000A0000DC0809120018F7707C08091200136
:100C20008F7D03C080912001877F80932001E92F71
:100C3000F0E0EE0FFF1FEE5DFE4FA591B4918FB770
:100C4000F8949C91209529232C938FBF62E170E04A
:100C500080E090E0B1DC60E08DE04DDC20E233E04C
:100C6000EA81FB8180818D2129F021503109C1F772
:100C70002DEF5FC020E931E0EA81FB8180818D2189
:100C800029F421503109C1F72CEF53C020E931E09C
:100C9000EA81FB8180818D2129F021503109C1F742
:100CA0002BEF47C0C12C80E8B0E020E030E060E9E5
:100CB00071E040E951E0A8E290E0EA81FB817080B8
:100CC0007D2071F5992361F1A83299F464177507B5
:100CD00008F4AB0114012501241A350A4108510812
:100CE00072E055944794379427947A95D1F79101FF
:100CF00007C0FA01E21BF30BE617F70708F0B82B61
:100D000090E095958795009741F4EC2DF0E0EB5835
:100D1000FD4FB087C394B0E080E8A15060E971E076
:100D20006150710929F0972DA111C7CF20E001C0B2
:100D30002EEF80917D028F77D82E80937D02809157
:100D40007F028F77C82E80937F026D2D70E080E048
:100D500090E029837FD1609375027093760280932F
:100D60007702909378026C2D70E080E090E072D171
:100D70006093790270937A0280937B0290937C0255
:100D80009091800280917E02890F8D0DC80E809116
:100D9000810229818C1104C02E3F29F02F3F31F4AC
:100DA00081E292E002C083E392E03EDC88E492E0DC
:100DB0003BDC6091790270917A0280917B02909184
:100DC0007C0241E08DDC85E592E03FDC87E592E046
:100DD0002BDC609175027091760280917702909180
:100DE000780241E07DDC8AE692E02FDC84E192E04B
:100DF0002CDC68EE73E080E090E0DEDB44DBA5CE27
:100E0000E2E8F2E01382128288EE93E0A0E0B0E024
:100E100084839583A683B78384E092E09183808363
:100E200085EC90E09587848784EC90E097878687AF
:100E300080EC90E0918B808B81EC90E0938B828BA7
:100E400082EC90E0958B848B86EC90E0978B868B80
:100E5000118E128E138E148E08955058BB27AA2718
:100E60000ED070C161D130F066D120F031F49F3FD7
:100E700011F41EF456C10EF4E095E7FB4CC1E92FC6
:100E800072D180F3BA17620773078407950718F0C9
:100E900071F49EF58AC10EF4E0950B2EBA2FA02DA9
:100EA0000B01B90190010C01CA01A0011124FF2717
:100EB000591B99F0593F50F4503E68F11A16F04012
:100EC000A22F232F342F4427585FF3CF4695379511
:100ED0002795A795F0405395C9F77EF41F16BA0BD6
:100EE000620B730B840BBAF09150A1F0FF0FBB1F84
:100EF000661F771F881FC2F70EC0BA0F621F731FCD
:100F0000841F48F4879577956795B795F7959E3F29
:100F100008F0B3CF9395880F08F09927EE0F9795B7
:100F200087950895D4D008F481E008950CD00AC1C3
:100F300002D140F0F9D030F021F45F3F19F0EBC05E
:100F4000511134C1EEC00FD198F39923C9F3552341
:100F5000B1F3951B550BBB27AA27621773078407AC
:100F600038F09F5F5F4F220F331F441FAA1FA9F362
:100F700033D00E2E3AF0E0E830D091505040E69554
:100F8000001CCAF729D0FE2F27D0660F771F881FB5
:100F9000BB1F261737074807AB07B0E809F0BB0BA4
:100FA000802DBF01FF2793585F4F2AF09E3F5105C8
:100FB00068F0B1C0FBC05F3FECF3983EDCF3869570
:100FC00077956795B795F7959F5FC9F7880F911D3E
:100FD0009695879597F90895E1E0660F771F881F2A
:100FE000BB1F621773078407BA0720F0621B730BDD
:100FF000840BBA0BEE1F88F7E0950895BCD088F0FB
:101000009F5790F0B92F9927B751A0F0D1F0660FF4
:10101000771F881F991F1AF0BA95C9F712C0B1300F
:1010200081F0C3D0B1E00895C0C0672F782F882722
:10103000B85F39F0B93FCCF3869577956795B3954E
:10104000D9F73EF490958095709561957F4F8F4FBD
:101050009F4F0895E89409C097FB3EF490958095C2
:10106000709561957F4F8F4F9F4F9923A9F0F92F6E
:1010700096E9BB279395F695879577956795B795EC
:10108000F111F8CFFAF4BB0F11F460FF1BC06F5FD2
:101090007F4F8F4F9F4F16C0882311F096E911C0E4
:1010A000772321F09EE8872F762F05C0662371F005
:1010B00096E8862F70E060E02AF09A95660F771F19
:1010C000881FDAF7880F9695879597F90895990FF5
:1010D0000008550FAA0BE0E8FEEF16161706E80702
:1010E000F907C0F012161306E407F50798F0621B23
:1010F000730B840B950B39F40A2661F0232B242BF8
:10110000252B21F408950A2609F4A140A6958FEF16
:10111000811D811D089597F99F6780E870E060E068
:1011200008959FEF80EC089500240A941616170680
:1011300018060906089500240A94121613061406C8
:1011400005060895092E0394000C11F4882352F02B
:10115000BB0F40F4BF2B11F460FF04C06F5F7F4FE3
:101160008F4F9F4F089557FD9058440F551F59F0CA
:101170005F3F71F04795880F97FB991F61F09F3F84
:1011800079F087950895121613061406551FF2CFAD
:101190004695F1DF08C0161617061806991FF1CFFD
:1011A00086957105610508940895E894BB27662724
:1011B0007727CB0197F908958ADF08F48FEF089518
:1011C0000BD0C0CFB1DF28F0B6DF18F0952309F0BF
:1011D000A2CFA7CF1124EACFC6DFA0F3959FD1F30A
:1011E000950F50E0551F629FF001729FBB27F00DD5
:1011F000B11D639FAA27F00DB11DAA1F649F66272A
:10120000B00DA11D661F829F2227B00DA11D621F78
:10121000739FB00DA11D621F839FA00D611D221F32
:10122000749F3327A00D611D231F849F600D211D16
:10123000822F762F6A2F11249F5750408AF0E1F0B9
:1012400088234AF0EE0FFF1FBB1F661F771F881F02
:1012500091505040A9F79E3F510570F05CCFA6CF4A
:101260005F3FECF3983EDCF3869577956795B795ED
:10127000F795E7959F5FC1F7FE2B880F911D969517
:10128000879597F9089523DF880B990B0895A1E2BC
:101290001A2EAA1BBB1BFD010DC0AA1FBB1FEE1FF0
:1012A000FF1FA217B307E407F50720F0A21BB30B3B
:1012B000E40BF50B661F771F881F991F1A9469F7B7
:1012C00060957095809590959B01AC01BD01CF0113
:1012D0000895EE0FFF1F881F8BBF0790F691E02D3A
:0E12E000199481E090E0F89400C0F894FFCFDC
:1012EE0000000000DC01460175012202A601840106
:1012FE0098010D0A006E616E00696E66006F76666B
:10130E0000436865636B73756D6D656E6665686CBD
:10131E006572005A656974EFBFBD6265727363686A
:10132E0072656974756E670054656D70657261746F
:10133E0075723A200043004C756674666575636875
:0C134E007469676B6569743A2000250023
:00000001FF
